{
  "contractName": "MetaNationMarketContract",
  "abi": [
    {
      "anonymous": false,
      "inputs": [
        {
          "indexed": false,
          "internalType": "uint256",
          "name": "id",
          "type": "uint256"
        },
        {
          "indexed": false,
          "internalType": "uint256",
          "name": "tokenId",
          "type": "uint256"
        },
        {
          "indexed": false,
          "internalType": "address",
          "name": "tokenAddress",
          "type": "address"
        },
        {
          "indexed": false,
          "internalType": "uint256",
          "name": "askingPrice",
          "type": "uint256"
        }
      ],
      "name": "itemAdded",
      "type": "event"
    },
    {
      "anonymous": false,
      "inputs": [
        {
          "indexed": false,
          "internalType": "uint256",
          "name": "id",
          "type": "uint256"
        },
        {
          "indexed": false,
          "internalType": "address",
          "name": "buyer",
          "type": "address"
        },
        {
          "indexed": false,
          "internalType": "uint256",
          "name": "askingPrice",
          "type": "uint256"
        }
      ],
      "name": "itemSold",
      "type": "event"
    },
    {
      "inputs": [
        {
          "internalType": "uint256",
          "name": "",
          "type": "uint256"
        }
      ],
      "name": "itemsForSale",
      "outputs": [
        {
          "internalType": "uint256",
          "name": "id",
          "type": "uint256"
        },
        {
          "internalType": "address",
          "name": "tokenAddress",
          "type": "address"
        },
        {
          "internalType": "uint256",
          "name": "tokenId",
          "type": "uint256"
        },
        {
          "internalType": "address payable",
          "name": "seller",
          "type": "address"
        },
        {
          "internalType": "uint256",
          "name": "askingPrice",
          "type": "uint256"
        },
        {
          "internalType": "bool",
          "name": "isSold",
          "type": "bool"
        }
      ],
      "stateMutability": "view",
      "type": "function",
      "constant": true
    },
    {
      "inputs": [
        {
          "internalType": "uint256",
          "name": "tokenId",
          "type": "uint256"
        },
        {
          "internalType": "address",
          "name": "tokenAddress",
          "type": "address"
        },
        {
          "internalType": "uint256",
          "name": "askingPrice",
          "type": "uint256"
        }
      ],
      "name": "addItemToMarket",
      "outputs": [
        {
          "internalType": "uint256",
          "name": "",
          "type": "uint256"
        }
      ],
      "stateMutability": "nonpayable",
      "type": "function"
    },
    {
      "inputs": [
        {
          "internalType": "uint256",
          "name": "id",
          "type": "uint256"
        }
      ],
      "name": "buyItem",
      "outputs": [],
      "stateMutability": "payable",
      "type": "function",
      "payable": true
    }
  ],
  "bytecode": "0x608060405234801561001057600080fd5b50611465806100206000396000f3fe6080604052600436106100345760003560e01c8063092d0afc146100395780634abc22021461007b578063e7fb74c7146100b8575b600080fd5b34801561004557600080fd5b50610060600480360381019061005b9190610fb4565b6100d4565b604051610072969594939291906112ba565b60405180910390f35b34801561008757600080fd5b506100a2600480360381019061009d9190610fdd565b61016d565b6040516100af9190611268565b60405180910390f35b6100d260048036038101906100cd9190610fb4565b6106a2565b005b600081815481106100e457600080fd5b90600052602060002090600602016000915090508060000154908060010160009054906101000a900473ffffffffffffffffffffffffffffffffffffffff16908060020154908060030160009054906101000a900473ffffffffffffffffffffffffffffffffffffffff16908060040154908060050160009054906101000a900460ff16905086565b6000828460008290503373ffffffffffffffffffffffffffffffffffffffff168173ffffffffffffffffffffffffffffffffffffffff16636352211e846040518263ffffffff1660e01b81526004016101c69190611268565b60206040518083038186803b1580156101de57600080fd5b505afa1580156101f2573d6000803e3d6000fd5b505050506040513d601f19601f820116820180604052508101906102169190610f8b565b73ffffffffffffffffffffffffffffffffffffffff161461026c576040517f08c379a000000000000000000000000000000000000000000000000000000000815260040161026390611228565b60405180910390fd5b858760008290503073ffffffffffffffffffffffffffffffffffffffff168173ffffffffffffffffffffffffffffffffffffffff1663081812fc846040518263ffffffff1660e01b81526004016102c39190611268565b60206040518083038186803b1580156102db57600080fd5b505afa1580156102ef573d6000803e3d6000fd5b505050506040513d601f19601f820116820180604052508101906103139190610f8b565b73ffffffffffffffffffffffffffffffffffffffff1614610369576040517f08c379a000000000000000000000000000000000000000000000000000000000815260040161036090611228565b60405180910390fd5b60001515600160008b73ffffffffffffffffffffffffffffffffffffffff1673ffffffffffffffffffffffffffffffffffffffff16815260200190815260200160002060008c815260200190815260200160002060009054906101000a900460ff1615151461040d576040517f08c379a0000000000000000000000000000000000000000000000000000000008152600401610404906111e8565b60405180910390fd5b60008080549050905060006040518060c001604052808381526020018c73ffffffffffffffffffffffffffffffffffffffff1681526020018d81526020013373ffffffffffffffffffffffffffffffffffffffff1681526020018b81526020016000151581525090806001815401808255809150506001900390600052602060002090600602016000909190919091506000820151816000015560208201518160010160006101000a81548173ffffffffffffffffffffffffffffffffffffffff021916908373ffffffffffffffffffffffffffffffffffffffff1602179055506040820151816002015560608201518160030160006101000a81548173ffffffffffffffffffffffffffffffffffffffff021916908373ffffffffffffffffffffffffffffffffffffffff1602179055506080820151816004015560a08201518160050160006101000a81548160ff021916908315150217905550505060018060008c73ffffffffffffffffffffffffffffffffffffffff1673ffffffffffffffffffffffffffffffffffffffff16815260200190815260200160002060008d815260200190815260200160002060006101000a81548160ff021916908315150217905550806000828154811061060e577f4e487b7100000000000000000000000000000000000000000000000000000000600052603260045260246000fd5b90600052602060002090600602016000015414610654577f4e487b7100000000000000000000000000000000000000000000000000000000600052600160045260246000fd5b7fd3742413e0092c98517699ed9f8567218c740a5a265a7a986d9430d597937522818c8c8c604051610689949392919061131b565b60405180910390a1809750505050505050509392505050565b8060008054905081108015610701575080600082815481106106ed577f4e487b7100000000000000000000000000000000000000000000000000000000600052603260045260246000fd5b906000526020600020906006020160000154145b610740576040517f08c379a000000000000000000000000000000000000000000000000000000000815260040161073790611208565b60405180910390fd5b81600015156000828154811061077f577f4e487b7100000000000000000000000000000000000000000000000000000000600052603260045260246000fd5b906000526020600020906006020160050160009054906101000a900460ff161515146107e0576040517f08c379a00000000000000000000000000000000000000000000000000000000081526004016107d790611248565b60405180910390fd5b6000838154811061081a577f4e487b7100000000000000000000000000000000000000000000000000000000600052603260045260246000fd5b906000526020600020906006020160010160009054906101000a900473ffffffffffffffffffffffffffffffffffffffff1660008481548110610886577f4e487b7100000000000000000000000000000000000000000000000000000000600052603260045260246000fd5b90600052602060002090600602016002015460008290503073ffffffffffffffffffffffffffffffffffffffff168173ffffffffffffffffffffffffffffffffffffffff1663081812fc846040518263ffffffff1660e01b81526004016108ed9190611268565b60206040518083038186803b15801561090557600080fd5b505afa158015610919573d6000803e3d6000fd5b505050506040513d601f19601f8201168201806040525081019061093d9190610f8b565b73ffffffffffffffffffffffffffffffffffffffff1614610993576040517f08c379a000000000000000000000000000000000000000000000000000000000815260040161098a90611228565b60405180910390fd5b600086815481106109cd577f4e487b7100000000000000000000000000000000000000000000000000000000600052603260045260246000fd5b906000526020600020906006020160040154341015610a21576040517f08c379a0000000000000000000000000000000000000000000000000000000008152600401610a18906111c8565b60405180910390fd5b60008681548110610a5b577f4e487b7100000000000000000000000000000000000000000000000000000000600052603260045260246000fd5b906000526020600020906006020160030160009054906101000a900473ffffffffffffffffffffffffffffffffffffffff1673ffffffffffffffffffffffffffffffffffffffff163373ffffffffffffffffffffffffffffffffffffffff161415610afb576040517f08c379a0000000000000000000000000000000000000000000000000000000008152600401610af290611228565b60405180910390fd5b600160008781548110610b37577f4e487b7100000000000000000000000000000000000000000000000000000000600052603260045260246000fd5b906000526020600020906006020160050160006101000a81548160ff021916908315150217905550600060016000808981548110610b9e577f4e487b7100000000000000000000000000000000000000000000000000000000600052603260045260246000fd5b906000526020600020906006020160010160009054906101000a900473ffffffffffffffffffffffffffffffffffffffff1673ffffffffffffffffffffffffffffffffffffffff1673ffffffffffffffffffffffffffffffffffffffff1681526020019081526020016000206000808981548110610c45577f4e487b7100000000000000000000000000000000000000000000000000000000600052603260045260246000fd5b906000526020600020906006020160020154815260200190815260200160002060006101000a81548160ff02191690831515021790555060008681548110610cb6577f4e487b7100000000000000000000000000000000000000000000000000000000600052603260045260246000fd5b906000526020600020906006020160010160009054906101000a900473ffffffffffffffffffffffffffffffffffffffff1673ffffffffffffffffffffffffffffffffffffffff166342842e0e60008881548110610d3d577f4e487b7100000000000000000000000000000000000000000000000000000000600052603260045260246000fd5b906000526020600020906006020160030160009054906101000a900473ffffffffffffffffffffffffffffffffffffffff163360008a81548110610daa577f4e487b7100000000000000000000000000000000000000000000000000000000600052603260045260246000fd5b9060005260206000209060060201600201546040518463ffffffff1660e01b8152600401610dda93929190611191565b600060405180830381600087803b158015610df457600080fd5b505af1158015610e08573d6000803e3d6000fd5b5050505060008681548110610e46577f4e487b7100000000000000000000000000000000000000000000000000000000600052603260045260246000fd5b906000526020600020906006020160030160009054906101000a900473ffffffffffffffffffffffffffffffffffffffff1673ffffffffffffffffffffffffffffffffffffffff166108fc349081150290604051600060405180830381858888f19350505050158015610ebd573d6000803e3d6000fd5b507f8164c6f8917e418c49813e4586897c7067de5a886aa1bea980cd11fa57d48264863360008981548110610f1b577f4e487b7100000000000000000000000000000000000000000000000000000000600052603260045260246000fd5b906000526020600020906006020160040154604051610f3c93929190611283565b60405180910390a1505050505050565b600081359050610f5b81611401565b92915050565b600081519050610f7081611401565b92915050565b600081359050610f8581611418565b92915050565b600060208284031215610f9d57600080fd5b6000610fab84828501610f61565b91505092915050565b600060208284031215610fc657600080fd5b6000610fd484828501610f76565b91505092915050565b600080600060608486031215610ff257600080fd5b600061100086828701610f76565b935050602061101186828701610f4c565b925050604061102286828701610f76565b9150509250925092565b611035816113cb565b82525050565b61104481611383565b82525050565b61105381611371565b82525050565b61106281611395565b82525050565b6000611075601583611360565b91507f4e6f7420656e6f7567682066756e64732073656e7400000000000000000000006000830152602082019050919050565b60006110b5601c83611360565b91507f4974656d20697320616c726561647920757020666f722073616c6521000000006000830152602082019050919050565b60006110f5601383611360565b91507f436f756c64206e6f742066696e64206974656d000000000000000000000000006000830152602082019050919050565b6000611135600083611360565b9150600082019050919050565b600061114f601583611360565b91507f4974656d20697320616c726561647920736f6c642100000000000000000000006000830152602082019050919050565b61118b816113c1565b82525050565b60006060820190506111a6600083018661102c565b6111b3602083018561104a565b6111c06040830184611182565b949350505050565b600060208201905081810360008301526111e181611068565b9050919050565b60006020820190508181036000830152611201816110a8565b9050919050565b60006020820190508181036000830152611221816110e8565b9050919050565b6000602082019050818103600083015261124181611128565b9050919050565b6000602082019050818103600083015261126181611142565b9050919050565b600060208201905061127d6000830184611182565b92915050565b60006060820190506112986000830186611182565b6112a5602083018561104a565b6112b26040830184611182565b949350505050565b600060c0820190506112cf6000830189611182565b6112dc602083018861104a565b6112e96040830187611182565b6112f6606083018661103b565b6113036080830185611182565b61131060a0830184611059565b979650505050505050565b60006080820190506113306000830187611182565b61133d6020830186611182565b61134a604083018561104a565b6113576060830184611182565b95945050505050565b600082825260208201905092915050565b600061137c826113a1565b9050919050565b600061138e826113a1565b9050919050565b60008115159050919050565b600073ffffffffffffffffffffffffffffffffffffffff82169050919050565b6000819050919050565b60006113d6826113dd565b9050919050565b60006113e8826113ef565b9050919050565b60006113fa826113a1565b9050919050565b61140a81611371565b811461141557600080fd5b50565b611421816113c1565b811461142c57600080fd5b5056fea26469706673582212204c2a4924d719496e5a0c1c92dc031e62a750b5411dfc55e9036795a4c1673bb864736f6c63430008000033",
  "immutableReferences": {},
  "source": "// SPDX-License-Identifier: MIT\n\npragma solidity ^0.8.0;\n\nimport \"../node_modules/@openzeppelin/contracts/token/ERC721/IERC721.sol\";\n\ncontract MetaNationMarketContract {\n    struct AuctionItem {\n        uint256 id;\n        address tokenAddress;\n        uint256 tokenId;\n        address payable seller;\n        uint256 askingPrice;\n        bool isSold;\n    }\n\n    AuctionItem[] public itemsForSale;\n    mapping(address => mapping(uint256 => bool)) activeItems;\n\n    event itemAdded(\n        uint256 id,\n        uint256 tokenId,\n        address tokenAddress,\n        uint256 askingPrice\n    );\n    event itemSold(uint256 id, address buyer, uint256 askingPrice);\n\n    modifier OnlyItemOwner(address tokenAddress, uint256 tokenId) {\n        IERC721 tokenContract = IERC721(tokenAddress);\n        require(tokenContract.ownerOf(tokenId) == msg.sender, \"\");\n        _;\n    }\n\n    modifier HasTransferApproval(address tokenAddress, uint256 tokenId) {\n        IERC721 tokenContract = IERC721(tokenAddress);\n        require(tokenContract.getApproved(tokenId) == address(this), \"\");\n        _;\n    }\n\n    modifier ItemExists(uint256 id) {\n        require(\n            id < itemsForSale.length && itemsForSale[id].id == id,\n            \"Could not find item\"\n        );\n        _;\n    }\n\n    modifier IsForSale(uint256 id) {\n        require(itemsForSale[id].isSold == false, \"Item is already sold!\");\n        _;\n    }\n\n    function addItemToMarket(\n        uint256 tokenId,\n        address tokenAddress,\n        uint256 askingPrice\n    )\n        external\n        OnlyItemOwner(tokenAddress, tokenId)\n        HasTransferApproval(tokenAddress, tokenId)\n        returns (uint256)\n    {\n        require(\n            activeItems[tokenAddress][tokenId] == false,\n            \"Item is already up for sale!\"\n        );\n        uint256 newItemId = itemsForSale.length;\n        itemsForSale.push(\n            AuctionItem(\n                newItemId,\n                tokenAddress,\n                tokenId,\n                payable(msg.sender),\n                askingPrice,\n                false\n            )\n        );\n        activeItems[tokenAddress][tokenId] = true;\n\n        assert(itemsForSale[newItemId].id == newItemId);\n        emit itemAdded(newItemId, tokenId, tokenAddress, askingPrice);\n        return newItemId;\n    }\n\n    function buyItem(uint256 id)\n        external\n        payable\n        ItemExists(id)\n        IsForSale(id)\n        HasTransferApproval(\n            itemsForSale[id].tokenAddress,\n            itemsForSale[id].tokenId\n        )\n    {\n        require(\n            msg.value >= itemsForSale[id].askingPrice,\n            \"Not enough funds sent\"\n        );\n        require(msg.sender != itemsForSale[id].seller, \"\");\n\n        itemsForSale[id].isSold = true;\n        activeItems[itemsForSale[id].tokenAddress][\n            itemsForSale[id].tokenId\n        ] = false;\n        IERC721(itemsForSale[id].tokenAddress).safeTransferFrom(\n            itemsForSale[id].seller,\n            msg.sender,\n            itemsForSale[id].tokenId\n        );\n        itemsForSale[id].seller.transfer(msg.value);\n\n        emit itemSold(id, msg.sender, itemsForSale[id].askingPrice);\n    }\n}\n",
  "sourcePath": "/Users/bhuvnesh/Documents/Hackathon/3_metanation/web_metanation/contracts/contracts/metanationMarketPlace.sol",
  "compiler": {
    "name": "solc",
    "version": "0.8.0+commit.c7dfd78e.Emscripten.clang"
  },
  "schemaVersion": "3.4.3",
  "updatedAt": "2022-02-06T17:47:15.473Z",
  "networkType": "ethereum",
  "devdoc": {
    "kind": "dev",
    "methods": {},
    "version": 1
  },
  "userdoc": {
    "kind": "user",
    "methods": {},
    "version": 1
  }
}